:1000000012C02CC02BC02AC029C028C027C026C0BF
:1000100025C024C023C022C021C020C01FC01EC0D4
:100020001DC01CC01BC011241FBECFE5D4E0DEBF25
:10003000CDBF10E0A0E6B0E0E0E9F0E002C005903E
:100040000D92A036B107D9F710E0A0E6B0E001C0EC
:100050001D92A036B107E1F702D018C0D1CF8FEFC3
:1000600087BB5AEA20E931E045E558BB80E197E2D9
:10007000F9013197F1F70197D9F748BB80E197E291
:10008000F9013197F1F70197D9F7EFCFF894FFCF46
:00000001FF
